:100000000C942A000C9447000C9447000C94470071
:100010000C9447000C9447000C9447000C94470044
:100020000C9447000C9447000C9447000C94470034
:100030000C9447000C9447000C9447000C94470024
:100040000C9447000C9447000C9447000C94470014
:100050000C94470011241FBECFE5D8E0DEBFCDBF12
:1000600010E0A0E6B0E0E6E1FBE002C005900D92F2
:10007000A436B107D9F720E0A4E6B0E001C01D9294
:10008000AA36B207E1F70E94C3010C9489050C94CB
:100090000000D89AD8980895D998DA9A88BB0E9417
:1000A00049000895D998DA9888BB0E9449000895BC
:1000B000CF93C82F892F806B0E9452008C2F82957E
:1000C0008F7080610E9452008C2F8F700E945200AE
:1000D000CF9108951F93CF93DF93D0E0C0E011E05C
:1000E0008C2F9D2F0E945800C12F01C0C82F80E087
:1000F0000E944C0081E08C0F8138C1F7DF5FD8305F
:1001000079F780E090E00E945800DF91CF911F9135
:1001100008958FE08ABB8FEF87BBDB9AD89880E485
:1001200090E00E94520080EA90E00E94520083EA30
:1001300090E00E94520080EC90E00E9452008FE21A
:1001400090E00E94520080E290E00E9452008CEA0F
:1001500090E00E94520081E890E00E94520080E20C
:1001600090E00E94520084EA90E00E9452008FEAE0
:1001700090E00E94520086EA90E00E9452000E94A5
:100180006A000895CF93DF9300D0CDB7DEB7D99A38
:10019000DA9A17BAD89A86B390E09A838983D89866
:1001A0008FEF87BB89819A810F900F90DF91CF915C
:1001B00008951F93CF93DF938823C4F19034B0F553
:1001C000162FC92FD82F892F869586958695806BF7
:1001D0000E94520080EE0E9452008D2F82958F70F7
:1001E00080610E9452008D2F8F700E9452000E94E9
:1001F000C20011110BC09C2F977021E030E002C0AB
:10020000220F331F9A95E2F7822B0BC09C2F977019
:1002100021E030E002C0220F331F9A95E2F72095CB
:1002200082230E944C008EEE0E945200DF91CF91FB
:100230001F91089514BA15BA13BA089583B3813083
:1002400059F083B3823051F083B3843049F083B3E3
:10025000883041F084E0089583E0089582E00895B5
:1002600080E0089581E008950F931F93CF93DF936B
:10027000662371F0082F192FC62FF801C083118251
:1002800060E0819191918F010E94D900C150A9F73E
:100290000E9438028F779078992324F40197806820
:1002A0009F6F01968C010E943802EC01CF73D078C9
:1002B000DD2324F42197C06CDF6F2196C8019927B4
:1002C0009F938F930E944802CE0199279F938F930B
:1002D0000E94480260E0802F9C2F0E94D9000F905E
:1002E0000F900F900F90DF91CF911F910F91089574
:1002F0000F931F93CF93DF938C01C62FD42FE62F3C
:10030000F0E0E150F048EE0FFF1FE80FF91F61E049
:10031000808191810E94D9006FEF6C0F71F0E62F00
:10032000F0E0EE0FFF1FE00FF11FDF0112978D913C
:100330009C9191838083615091F7D13059F028F0DE
:10034000D23069F0D33081F013C0F80181818F5F22
:1003500081830EC0F80181818150818309C0F80139
:1003600080818F5F808304C0F80180818150808309
:1003700060E0F801808191810E94D900DF91CF91E6
:100380001F910F910895CF93DF93CDB7DEB7C85C6F
:10039000D1090FB6F894DEBF0FBECDBF0E94890011
:1003A0000E941A016AE0CE0101960E94340112E017
:1003B0000E941E01843019F00E941E01182F412F47
:1003C0006AE0CE0101960E94780187EA91E60197E2
:1003D000F1F700C00000ECCF8F929F92AF92BF92D6
:1003E000CF92DF92EF92FF92CF93DF93EC0168817F
:1003F00079818A819B81611571058105910521F4BF
:1004000064E279ED8BE597E02DE133EF41E050E0D8
:100410000E94EF0449015A019B01AC01A7EAB1E433
:100420000E940E056B017C01ACEEB4EFA5019401B6
:100430000E941C05DC01CB018C0D9D1DAE1DBF1D56
:10044000B7FF03C00197A109B04888839983AA83A5
:10045000BB839F77DF91CF91FF90EF90DF90CF909C
:10046000BF90AF909F908F9008950E94EC010895E7
:1004700080E690E00E94EC010895A0E0B0E0809357
:10048000600090936100A0936200B09363000895B0
:10049000A0E0B0E0EEE4F2E00C943105AE014B5F79
:1004A0005F4FFA0161917191AF0180916600909167
:1004B00067000E945E02E2E00C944D05ABE0B0E004
:1004C000E4E6F2E00C9421056C017B018A01FC0159
:1004D00017821682838181FFCCC1CE0101963C0137
:1004E000F6019381F70193FD859193FF81917F013F
:1004F000882309F4BAC1853239F493FD859193FFBD
:1005000081917F01853229F4B60190E00E94550463
:10051000E7CF912C212C312CFFE1F315D8F08B3251
:1005200079F038F4803279F08332A1F4232D206100
:100530001DC08D3261F0803369F4232D216016C017
:10054000832D8260382EE32DE4603E2E2AC0F32DE9
:10055000F8601DC037FC2DC020ED280F2A3040F078
:100560008E32B9F436FC81C1232D2064322E19C09D
:1005700036FE06C08AE0989E200D1124922E11C0EE
:10058000EAE02E9E200D1124222EF32DF0623F2E44
:1005900008C08C3621F4832D8068382E02C088363E
:1005A00041F4F70193FD859193FF81917F018111C2
:1005B000B3CF982F9F7D9554933028F40C5F1F4F35
:1005C0009FE399830DC0833631F0833771F0833513
:1005D00009F059C021C0F801808189830E5F1F4F47
:1005E00088248394912C530113C02801F2E04F0E0C
:1005F000511CF801A080B18036FE03C0692D70E067
:1006000002C06FEF7FEFC5010E944A044C018201D6
:10061000F32DFF773F2E16C0280122E0420E511C19
:10062000F801A080B18036FE03C0692D70E002C0E1
:100630006FEF7FEFC5010E943F044C01F32DF0687E
:100640003F2E820133FC1BC0822D90E08816990654
:10065000B0F4B60180E290E00E9455042A94F4CFF1
:10066000F50137FC859137FE81915F01B60190E07D
:100670000E94550421102A9421E0821A91088114C5
:10068000910471F7E8C0843611F0893641F5F8011C
:1006900037FE07C060817181828193810C5F1F4F9B
:1006A00008C060817181072E000C880B990B0E5FCA
:1006B0001F4FF32DFF763F2E97FF09C09095809531
:1006C000709561957F4F8F4F9F4FF0683F2E2AE0C6
:1006D00030E0A3010E949104882E861845C085371A
:1006E00031F4232D2F7EB22E2AE030E025C0932D49
:1006F000997FB92E8F36C1F018F4883579F0B5C0DE
:10070000803719F0883721F0B0C0E92FE061BE2EA4
:10071000B4FE0DC0FB2DF460BF2E09C034FE0AC02C
:10072000292F2660B22E06C028E030E005C020E167
:1007300030E002C020E132E0F801B7FE07C060817E
:100740007181828193810C5F1F4F06C0608171812E
:1007500080E090E00E5F1F4FA3010E949104882E5D
:100760008618FB2DFF773F2E36FE0DC0232D2E7FE2
:10077000A22E891458F434FE0BC032FC09C0832D1C
:100780008E7EA82E05C0B82CA32C03C0B82C01C0A7
:10079000B92CA4FE0FC0FE01E80DF11D808180334D
:1007A00021F49A2D997EA92E09C0A2FE06C0B39409
:1007B000B39404C08A2D867809F0B394A3FC11C0C9
:1007C000A0FE06C0B21488F4280C922C9B180EC010
:1007D000B21460F4B60180E290E00E945504B39434
:1007E000F7CFB21418F42B1802C0982C212CA4FEB9
:1007F00010C0B60180E390E00E945504A2FE17C02D
:10080000A1FC03C088E790E002C088E590E0B60153
:100810000CC08A2D867859F0A1FE02C08BE201C07F
:1008200080E2A7FC8DE2B60190E00E945504891495
:1008300038F4B60180E390E00E9455049A94F7CF13
:100840008A94F301E80DF11D8081B60190E00E94C9
:1008500055048110F5CF222009F442CEB60180E282
:1008600090E00E9455042A94F6CFF6018681978184
:1008700002C08FEF9FEF2B96E2E10C943D05FC0147
:100880000590615070400110D8F7809590958E0FBB
:100890009F1F0895FC016150704001900110D8F72E
:1008A000809590958E0F9F1F08950F931F93CF9360
:1008B000DF93FB01238121FD03C08FEF9FEF2CC04D
:1008C00022FF16C046815781248135814217530784
:1008D00044F4A081B1819D012F5F3F4F318320837C
:1008E0008C93268137812F5F3F4F3783268314C037
:1008F0008B01EC01FB010084F185E02D0995892B2A
:10090000E1F6D80116968D919C911797019617964E
:100910009C938E931697CE01DF91CF911F910F91EB
:100920000895FA01AA27283051F1203181F1E89485
:100930006F936E7F6E5F7F4F8F4F9F4FAF4FB1E0D2
:100940003ED0B4E03CD0670F781F891F9A1FA11DCD
:10095000680F791F8A1F911DA11D6A0F711D811DCE
:10096000911DA11D20D009F468943F912AE0269F93
:1009700011243019305D3193DEF6CF010895462FF2
:100980004770405D4193B3E00FD0C9F7F6CF462FD3
:100990004F70405D4A3318F0495D31FD405241933C
:1009A00002D0A9F7EACFB4E0A695979587957795F9
:1009B0006795BA95C9F700976105710508959B0180
:1009C000AC010A2E06945795479537952795BA9509
:1009D000C9F7620F731F841F951FA01D0895052E70
:1009E00097FB1EF400940E94060557FD07D00E9455
:1009F000580507FC03D04EF40C940605509540951D
:100A0000309521953F4F4F4F5F4F089590958095BA
:100A1000709561957F4F8F4F9F4F08950E947A0583
:100A2000A59F900DB49F900DA49F800D911D112442
:100A30000895B7FF0C940E050E940E05821B930BC0
:100A400008952F923F924F925F926F927F928F9272
:100A50009F92AF92BF92CF92DF92EF92FF920F934D
:100A60001F93CF93DF93CDB7DEB7CA1BDB0B0FB657
:100A7000F894DEBF0FBECDBF09942A883988488814
:100A80005F846E847D848C849B84AA84B984C884AA
:100A9000DF80EE80FD800C811B81AA81B981CE0FA1
:100AA000D11D0FB6F894DEBF0FBECDBFED01089586
:100AB000A1E21A2EAA1BBB1BFD010DC0AA1FBB1F62
:100AC000EE1FFF1FA217B307E407F50720F0A21BD4
:100AD000B30BE40BF50B661F771F881F991F1A9441
:100AE00069F760957095809590959B01AC01BD016B
:100AF000CF010895A29FB001B39FC001A39F700DC5
:100B0000811D1124911DB29F700D811D1124911D15
:060B10000895F894FFCFE8
:040B160001000000DA
:00000001FF
